:020000040800F2
:1000000000300020D92400083125000831250008DF
:1000100031250008312500083125000800000000C6
:100020000000000000000000000000003125000872
:1000300031250008000000003125000831250008A6
:1000400000000000000000000000000000000000B0
:1000500000000000000000000000000000000000A0
:100060000000000000000000000000000000000090
:100070000000000000000000000000000000000080
:100080000000000000000000000000000000000070
:100090000000000000000000000000000000000060
:1000A0000000000000000000000000000000000050
:1000B0000000000000000000000000000000000040
:1000C0000000000000000000000000000000000030
:1000D0000000000000000000000000000000000020
:1000E0000000000000000000000000000000000010
:1000F0000000000000000000000000000000000000
:1001000000000000000000000000000000000000EF
:1001100000000000000000000000000000000000DF
:1001200000000000000000000000000000000000CF
:1001300000000000000000000000000000000000BF
:1001400000000000000000000000000000000000AF
:10015000000000000000000000000000000000009F
:10016000000000000000000000000000000000008F
:10017000000000000000000000000000000000007F
:08018000000000000000000077
:1001900001F0FF01102A2BDB10F0070F08D010F838
:1001A000013B013A8B422DD010F0070F42B3F6D13C
:1001B000F0B441EA012141EA014122F007047FF055
:1001C00000070023F0E80256083C85EA010586EAAC
:1001D000010685FA47F5A3FA87F586FA47F6A5FAE8
:1001E00087F68EB9EED1F0BC01F0FF0102F00702F4
:1001F00032B110F8013B013A83EA010313B1F8D19F
:100200000020704701387047002D06BF354603387F
:10021000073815F0010F07D1013015F4807F02BFB8
:10022000013015F4C03F0130F0BC0138704700BF09
:1002300010B5054C237833B9044B13B10448AFF320
:1002400000800123237010BD400100200000000049
:100250008437000808B5034B1BB103490348AFF3CB
:10026000008008BD00000000440100208437000821
:10027000064B4FF4FA724FF4C871C3E900124FF401
:1002800020704FF43972C3E90202704774000020F5
:10029000164BD3E90421A1B115490968CA4213D10B
:1002A000D3E9071088421EDA1149986A49688842E2
:1002B00019DB596A53F821009042CCBF002001207D
:1002C000704799699142EBDAD3E90712914208DA53
:1002D0005A6A53F822009B699842B4BF002001205B
:1002E0007047012070470020704700BF7400002055
:1002F00000000020144BD3E9042161B113490968BF
:10030000CA420BD1D3E9071088421BDA596A53F865
:100310002100904210E099699142F3DAD3E9071283
:1003200091420DDA094A996A5268914208DB5A6A89
:1003300053F822009B699842CCBF002001207047EF
:10034000002070470120704774000020000000204A
:1003500038B5DFF88090D9F800A0DFF87CB0CBF892
:1003600000A01A4DEB6A53B1194A296B9368994260
:1003700023DCAB6AD2689342D4BF002301236C6BA9
:100380001CB1AC6BB4FA84F46409C3B1EB6B012B00
:1003900000D184B1FFF77CFF044628B1D5E90740BE
:1003A0008442ACBF00240124FFF7A4FF18B1D5E9B3
:1003B00007329A4205DB2C6438BD0023DFE71C4678
:1003C000F9E7002C0CBF02240024F4E7740000209D
:1003D00000000020362F0020020F0020F0B54FF45F
:1003E000FA708FB002F0D4F8044600F0D9F925462F
:1003F0000A2823D100232B703749374F204602F0BB
:1004000095F9012501AEF0B90D2D26D0652000F03B
:10041000DDF9722000F0DAF9722000F0D7F96F20D0
:1004200000F0D4F9722000F0D1F9212000F0CEF9CB
:100430000A200FB0BDE8F04000F0C8B905F8010B84
:1004400000F0AEF9D4E702F074F8394646F825001A
:10045000002002F06BF90135D5E720461F4C02F071
:100460009FF8FFF705FF029BA362039BE362049BD7
:100470006363059BE361069B2363079B2362089BE1
:100480006362099B23610A9BA3610B9BA3630C9B83
:10049000E3630D9B636100F06DF9FFF759FFDFF82F
:1004A0004090D9F800A0DFF83CB0CBF800A0246C55
:1004B000303400F06AF9E0B200F088F90A2000F068
:1004C00085F9642000F082F96F2000F07FF96E203A
:1004D00000F07CF96520A6E79C3700087400002036
:1004E000342F0020000F002008B500F075F800F050
:1004F000C5F800F013F9682000F068F9652000F0F5
:1005000065F96C2000F062F96C2000F05FF96F2053
:1005100000F05CF90A2000F059F900F00FF8FFF73D
:100520005DFFFCE780B483B000AF7860002318461D
:100530000C37BD465DF8047B7047000080B500AF06
:10054000034A0021762000F005F800BF80BD00BFFF
:100550002505000880B485B000AF0346B9607A6015
:10056000FB731B4B1B68092B01DD01232AE0BB68D1
:100570003F2B01D9012325E0154B1A681549134675
:100580005B0013449B000B44FA7B1A70104B1A68F3
:10059000104913465B0013449B000B440433BA68B4
:1005A0001A600B4B1A680B4913465B0013449B00FF
:1005B0000B4408337A681A60054B1B680133044A00
:1005C0001360002318461437BD465DF8047B70475E
:1005D00030010020B800002080B596B000AF0323A2
:1005E000FB624FF4A0233B630023FB630023FB6407
:1005F00007F12C03184600F01FF90F23BB610123FC
:10060000FB6100233B6200237B620023BB6200236B
:100610007B6507F11803796D184600F0F7FF154B5D
:100620005B69144A43F400235361124B5B6903F482
:1006300000233B603B684FF4C0437B600123BB60F9
:100640000023FB6003233B613B1D19460A4801F070
:1006500067F901224FF40051074801F0DFFA012247
:100660004FF48041044801F0D9FA00BF5837BD4625
:1006700080BD00BF001002400008004880B588B06F
:1006800000AF4FF4C063FB6002233B6101237B6139
:100690000323BB610723FB611D4B5B691C4A43F4C9
:1006A000003353611A4B5B6903F40033BB60BB68D2
:1006B00007F10C0319464FF0904001F031F9154B4A
:1006C000154A1A60134B4FF4E1325A60114B002265
:1006D0009A60104B0022DA600E4B00221A610D4B1B
:1006E00000229A610B4B0C225A61094B9B69084A04
:1006F00043F480439361064B9B6903F480437B6022
:100700007B68044801F0E9FC00BF2037BD4680BD8E
:10071000001002406C0100200038014080B586B016
:1007200000AF134B5B69124A43F400335361104B23
:100730005B6903F400333B603B684FF480537B609C
:100740000123BB600023FB6003233B613B1D194673
:100750004FF0904001F0E4F800224FF480514FF048
:10076000904001F05BFA00BF1837BD4680BD00BF66
:100770000010024080B500AF01224FF480514FF0CD
:10078000904001F04BFA00BF80BD80B500AF002261
:100790004FF480514FF0904001F040FA00BF80BD0F
:1007A00080B582B000AF00BFF91D41F2883301224D
:1007B000054801F0B0FD0346002BF5D1FB79184642
:1007C0000837BD4680BD00BF6C01002080B584B0F5
:1007D00000AF0346FB71FB79FB7307F10F0141F298
:1007E00088330122034801F009FD00BF1037BD46E0
:1007F00080BD00BF6C01002080B400AF044B1B68BB
:100800005A1C03490A601846BD465DF8047B7047D0
:100810003401002080B400AF4FF4E1031846BD4618
:100820005DF8047B704780B400AF4FF4E1031846D5
:10083000BD465DF8047B704780B5ADF5007D00AF27
:100840003B1D18600023C7F8F8313B1D1B681B686F
:1008500003F00103002B00F06E81B54B5B6803F0E1
:100860000C03042B0CD0B24B5B6803F00C03082B79
:100870005AD1AF4B5B6803F48033B3F5803F53D15B
:100880004FF40033C7F8F431D7F8F43193FAA3F3F7
:10089000C7F8F031D7F8F031B3FA83F3DBB25B0974
:1008A000DBB243F00103DBB2012B02D1A04B1B688A
:1008B00015E04FF40033C7F8EC31D7F8EC3193FA78
:1008C000A3F3C7F8E8314FF40033C7F8E431D7F8A1
:1008D000E43193FAA3F3C7F8E031954B5B6A4FF428
:1008E0000032C7F8DC21D7F8DC2192FAA2F2C7F86F
:1008F000D821D7F8D821B2FA82F252B242F02002BF
:1009000052B2D2B202F01F02012101FA02F21340E8
:10091000002B00F00F813B1D1B685B68002B40F033
:100920000981012300F06BBE3B1D1B685B68B3F5BA
:10093000803F06D17E4B1B687D4A43F480331360B1
:1009400030E03B1D1B685B68002B0CD1784B1B68AB
:10095000774A23F480331360754B1B68744A23F481
:10096000802313601EE03B1D1B685B68B3F5A02F5E
:100970000CD16F4B1B686E4A43F4802313606C4BA1
:100980001B686B4A43F4803313600BE0684B1B68B1
:10099000674A23F480331360654B1B68644A23F471
:1009A00080231360624BDB6A23F00F023B1D1B6840
:1009B0009B685F491343CB623B1D1B685B68002B40
:1009C0005AD0FFF719FFC7F8F8010AE0FFF714FF44
:1009D0000246D7F8F831D31A642B02D9032300F06A
:1009E0000EBE4FF40033C7F8D431D7F8D43193FAA0
:1009F000A3F3C7F8D031D7F8D031B3FA83F3DBB221
:100A00005B09DBB243F00103DBB2012B02D1484B9F
:100A10001B6815E04FF40033C7F8CC31D7F8CC3160
:100A200093FAA3F3C7F8C8314FF40033C7F8C431C1
:100A3000D7F8C43193FAA3F3C7F8C0313C4B5B6AD3
:100A40004FF40032C7F8BC21D7F8BC2192FAA2F2C9
:100A5000C7F8B821D7F8B821B2FA82F252B242F000
:100A6000200252B2D2B202F01F02012101FA02F2B8
:100A70001340002BAAD05EE0FFF7BEFEC7F8F801D6
:100A80000AE0FFF7B9FE0246D7F8F831D31A642B13
:100A900002D9032300F0B3BD4FF40033C7F8B431DB
:100AA000D7F8B43193FAA3F3C7F8B031D7F8B0311F
:100AB000B3FA83F3DBB25B09DBB243F00103DBB2D1
:100AC000012B02D11A4B1B6815E04FF40033C7F815
:100AD000AC31D7F8AC3193FAA3F3C7F8A8314FF48F
:100AE0000033C7F8A431D7F8A43193FAA3F3C7F8B9
:100AF000A0310F4B5B6A4FF40032C7F89C21D7F846
:100B00009C2192FAA2F2C7F89821D7F89821B2FA5C
:100B100082F252B242F0200252B2D2B202F01F026E
:100B2000012101FA02F21340002BAAD103E000BF19
:100B30000010024000BF3B1D1B681B6803F002034E
:100B4000002B00F07081D04B5B6803F00C03002B8E
:100B50000BD0CD4B5B6803F00C03082B6DD1CA4B57
:100B60005B6803F48033002B67D10223C7F894310C
:100B7000D7F8943193FAA3F3C7F89031D7F89031AE
:100B8000B3FA83F3DBB25B09DBB243F00103DBB200
:100B9000012B02D1BC4B1B6813E00223C7F88C3138
:100BA000D7F88C3193FAA3F3C7F888310223C7F83A
:100BB0008431D7F8843193FAA3F3C7F88031B24B6C
:100BC0005B6A0222C7F87C21D7F87C2192FAA2F254
:100BD000C7F87821D7F87821B2FA82F252B242F0FF
:100BE000200252B2D2B202F01F02012101FA02F237
:100BF0001340002B07D03B1D1B681B69012B02D043
:100C0000012300F0FCBCA04B1B6823F0F8023B1D45
:100C10001B685969F823C7F87431D7F8743193FA0F
:100C2000A3F3C7F87031D7F87031B3FA83F301FA40
:100C300003F3954913430B60F5E03B1D1B681B69EB
:100C4000002B00F085800123C7F86C31D7F86C3198
:100C500093FAA3F3C7F86831D7F86831B3FA83F38E
:100C600003F1845303F584139B001A460123136098
:100C7000FFF7C2FDC7F8F8010AE0FFF7BDFD024625
:100C8000D7F8F831D31A022B02D9032300F0B7BCEE
:100C90000223C7F86431D7F8643193FAA3F3C7F895
:100CA0006031D7F86031B3FA83F3DBB25B09DBB2B2
:100CB00043F00103DBB2012B02D1734B1B6813E03D
:100CC0000223C7F85C31D7F85C3193FAA3F3C7F875
:100CD00058310223C7F85431D7F8543193FAA3F3AB
:100CE000C7F85031684B5B6A0222C7F84C21D7F82D
:100CF0004C2192FAA2F2C7F84821D7F84821B2FA5B
:100D000082F252B242F0200252B2D2B202F01F027C
:100D1000012101FA02F21340002BAED05A4B1B689E
:100D200023F0F8023B1D1B685969F823C7F84431CA
:100D3000D7F8443193FAA3F3C7F84031D7F84031DC
:100D4000B3FA83F301FA03F34F4913430B606AE0EC
:100D50000123C7F83C31D7F83C3193FAA3F3C7F825
:100D60003831D7F83831B3FA83F303F1845303F5FC
:100D700084139B001A4600231360FFF73DFDC7F85C
:100D8000F8010AE0FFF738FD0246D7F8F831D31A28
:100D9000022B02D9032300F032BC0223C7F83431FE
:100DA000D7F8343193FAA3F3C7F83031D7F830319C
:100DB000B3FA83F3DBB25B09DBB243F00103DBB2CE
:100DC000012B02D1304B1B6813E00223C7F82C31F2
:100DD000D7F82C3193FAA3F3C7F828310223C7F8C8
:100DE0002431D7F8243193FAA3F3C7F82031264BE6
:100DF0005B6A0222C7F81C21D7F81C2192FAA2F2E2
:100E0000C7F81821D7F81821B2FA82F252B242F08C
:100E1000200252B2D2B202F01F02012101FA02F204
:100E20001340002BAED13B1D1B681B6803F0080369
:100E3000002B00F0D8803B1D1B689B69002B67D0FE
:100E40000123C7F81431D7F8143193FAA3F3C7F884
:100E50001031D7F81031B3FA83F31A460B4B134411
:100E60009B001A4601231360FFF7C6FCC7F8F80180
:100E70000EE0FFF7C1FC0246D7F8F831D31A022B77
:100E800006D90323BBE300BF00100240208190106D
:100E90000223C7F80C31D7F80C3193FAA3F3C7F843
:100EA00008310223C7F80431D7F8043193FAA3F2CA
:100EB00007F580731A6007F1FC0302221A6007F13C
:100EC000FC031B6893FAA3F207F1F8031A60A54B21
:100ED0005A6A07F1F4030221196007F1F4031B6851
:100EE00093FAA3F107F1F003196007F1F0031B680F
:100EF000B3FA83F35BB243F060035BB2DBB203F09F
:100F00001F03012101FA03F31340002BB1D06AE063
:100F100007F1EC0301221A6007F1EC031B6893FA56
:100F2000A3F207F1E8031A6007F1E8031B68B3FABC
:100F300083F31A468C4B13449B001A46002313601C
:100F4000FFF75AFCC7F8F80109E0FFF755FC024625
:100F5000D7F8F831D31A022B01D903234FE307F155
:100F6000E40302221A6007F1E4031B6893FAA3F278
:100F700007F1E0031A6007F1DC0302221A6007F1AF
:100F8000DC031B6893FAA3F207F1D8031A6007F198
:100F9000D40302221A6007F1D4031B6893FAA3F268
:100FA00007F1D0031A606F4B5A6A07F1CC03022194
:100FB000196007F1CC031B6893FAA3F107F1C8038A
:100FC000196007F1C8031B68B3FA83F35BB243F0FF
:100FD00060035BB2DBB203F01F03012101FA03F3EC
:100FE0001340002BB1D13B1D1B681B6803F00403A9
:100FF000002B00F05981002387F8FF31594BDB6942
:1010000003F08053002B12D1564BDB69554A43F055
:101010008053D361534BDB6903F0805207F10C031B
:101020001A6007F10C031B68012387F8FF314F4B4F
:101030001B6803F48073002B1AD14C4B1B684B4A7E
:1010400043F480731360FFF7D7FBC7F8F80109E09A
:10105000FFF7D2FB0246D7F8F831D31A642B01D937
:101060000323CCE2414B1B6803F48073002BEFD0C9
:101070003B1D1B68DB68012B06D13A4B1B6A394AC2
:1010800043F0010313622FE03B1D1B68DB68002B5C
:101090000CD1344B1B6A334A23F001031362314BEA
:1010A0001B6A304A23F0040313621DE03B1D1B68DA
:1010B000DB68052B0CD12B4B1B6A2A4A43F0040337
:1010C0001362284B1B6A274A43F0010313620BE0AB
:1010D000244B1B6A234A23F001031362214B1B6A32
:1010E000204A23F0040313623B1D1B68DB68002BBE
:1010F0006BD0FFF781FBC7F8F8010BE0FFF77CFB33
:101100000246D7F8F831D31A41F28832934201D916
:10111000032374E207F1C40302221A6007F1C40337
:101120001B6893FAA3F207F1C0031A6007F1BC032E
:1011300002221A6007F1BC031B6893FAA3F207F1BD
:10114000B8031A6007F1B8031B68B3FA83F3DBB284
:101150005B09DBB243F00203DBB2022B08D1014B87
:101160001B6A13E0001002402081901000700040C4
:1011700007F1B40302221A6007F1B4031B6893FA63
:10118000A3F207F1B0031A60BB4B5B6A07F1AC0234
:101190000221116007F1AC02126892FAA2F107F184
:1011A000A802116007F1A8021268B2FA82F252B2E4
:1011B00042F0400252B2D2B202F01F02012101FA03
:1011C00002F21340002B99D064E0FFF715FBC7F83B
:1011D000F8010BE0FFF710FB0246D7F8F831D31AFD
:1011E00041F28832934201D9032308E207F1A403B4
:1011F00002221A6007F1A4031B6893FAA3F207F115
:10120000A0031A6007F19C0302221A6007F19C03F5
:101210001B6893FAA3F207F198031A6007F1980389
:101220001B68B3FA83F3DBB25B09DBB243F0020362
:10123000DBB2022B02D1904B1B6A0DE007F1940345
:1012400002221A6007F194031B6893FAA3F207F1D4
:1012500090031A60884B5B6A07F18C0202211160CF
:1012600007F18C02126892FAA2F107F1880211606C
:1012700007F188021268B2FA82F252B242F04002DA
:1012800052B2D2B202F01F02012101FA02F213405F
:10129000002B9FD197F8FF31012B05D1764BDB69ED
:1012A000754A23F08053D3613B1D1B68DB69002B1B
:1012B00000F0A481704B5B6803F00C03082B00F076
:1012C0009B813B1D1B68DB69022B40F0138107F1FA
:1012D00084034FF080721A6007F184031B6893FA4D
:1012E000A3F207F180031A6007F180031B68B3FAC9
:1012F00083F303F1845303F584139B001A46002300
:101300001360FFF779FAC7F8F80109E0FFF774FAFC
:101310000246D7F8F831D31A022B01D903236EE124
:1013200007F17C034FF000721A6007F17C031B6821
:1013300093FAA3F207F178031A6007F178031B68A8
:10134000B3FA83F3DBB25B09DBB243F00103DBB238
:10135000012B02D1484B1B681BE007F174034FF0CF
:1013600000721A6007F174031B6893FAA3F207F185
:1013700070031A6007F16C034FF000721A6007F1F6
:101380006C031B6893FAA3F207F168031A603A4BE7
:101390005B6A07F164024FF00071116007F16402AB
:1013A000126892FAA2F107F16002116007F160027F
:1013B0001268B2FA82F252B242F0200252B2D2B2B3
:1013C00002F01F02012101FA02F21340002B9DD10D
:1013D000294B5B6823F474123B1D1B68596A3B1D43
:1013E0001B681B6A0B43244913434B6007F15C03E2
:1013F0004FF080721A6007F15C031B6893FAA3F246
:1014000007F158031A6007F158031B68B3FA83F316
:1014100003F1845303F584139B001A4601231360E0
:10142000FFF7EAF9C7F8F80109E0FFF7E5F9024626
:10143000D7F8F831D31A022B01D90323DFE007F1E3
:1014400054034FF000721A6007F154031B6893FABB
:10145000A3F207F150031A6007F150031B68B3FAB7
:1014600083F3DBB25B09DBB243F00103DBB2012B98
:1014700004D1014B1B681DE00010024007F14C0332
:101480004FF000721A6007F14C031B6893FAA3F245
:1014900007F148031A6007F144034FF000721A6025
:1014A00007F144031B6893FAA3F207F140031A60A3
:1014B000554B5B6A07F13C024FF00071116007F178
:1014C0003C02126892FAA2F107F13802116007F1AA
:1014D00038021268B2FA82F252B242F0200252B2DC
:1014E000D2B202F01F02012101FA02F21340002BD6
:1014F0009BD083E007F134034FF080721A6007F14C
:1015000034031B6893FAA3F207F130031A6007F162
:1015100030031B68B3FA83F303F1845303F5841398
:101520009B001A4600231360FFF766F9C7F8F8011D
:1015300009E0FFF761F90246D7F8F831D31A022B18
:1015400001D903235BE007F12C034FF000721A600E
:1015500007F12C031B6893FAA3F207F128031A6022
:1015600007F128031B68B3FA83F3DBB25B09DBB234
:1015700043F00103DBB2012B02D1234B1B681BE0BC
:1015800007F124034FF000721A6007F124031B686F
:1015900093FAA3F207F120031A6007F11C034FF03E
:1015A00000721A6007F11C031B6893FAA3F207F19B
:1015B00018031A60144B5B6A07F114024FF00071B4
:1015C000116007F11402126892FAA2F107F11002F9
:1015D000116007F110021268B2FA82F252B242F0C0
:1015E000200252B2D2B202F01F02012101FA02F22D
:1015F0001340002B9DD101E0012300E00023184699
:1016000007F50077BD4680BD0010024080B59CB054
:1016100000AF786039600023FB66A74B1B6803F0BE
:1016200007033A689A4210D9A34B1B6823F00702BC
:10163000A1493B6813430B609F4B1B6803F00703F2
:101640003A689A4201D001235AE17B681B6803F093
:101650000203002B08D0994B5B6823F0F0027B68F3
:101660009B68964913434B607B681B6803F001033A
:10167000002B00F009817B685B68012B3DD14FF4A2
:101680000033BB66BB6E93FAA3F37B667B6EB3FA43
:1016900083F3DBB25B09DBB243F00103DBB2012B66
:1016A00002D1864B1B680FE04FF400333B663B6E64
:1016B00093FAA3F3FB654FF40033BB65BB6D93FA5C
:1016C000A3F37B657D4B5B6A4FF400323A653A6D5C
:1016D00092FAA2F2FA64FA6CB2FA82F252B242F0D0
:1016E000200252B2D2B202F01F02012101FA02F22C
:1016F0001340002B7DD1012302E17B685B68022B44
:101700003DD14FF00073BB64BB6C93FAA3F37B64D1
:101710007B6CB3FA83F3DBB25B09DBB243F001030A
:10172000DBB2012B02D1654B1B680FE04FF0007359
:101730003B643B6C93FAA3F3FB634FF00073BB6312
:10174000BB6B93FAA3F37B635C4B5B6A4FF0007255
:101750003A633A6B92FAA2F2FA62FA6AB2FA82F247
:1017600052B242F0200252B2D2B202F01F02012164
:1017700001FA02F21340002B3BD10123C0E0022307
:10178000BB62BB6A93FAA3F37B627B6AB3FA83F30F
:10179000DBB25B09DBB243F00103DBB2012B02D108
:1017A000464B1B680DE002233B623B6A93FAA3F3AE
:1017B000FB610223BB61BB6993FAA3F37B613F4BDF
:1017C0005B6A02223A613A6992FAA2F2FA60FA6816
:1017D000B2FA82F252B242F0200252B2D2B202F017
:1017E0001F02012101FA02F21340002B01D1012353
:1017F00086E0324B5B6823F003027B685B682F490D
:1018000013434B60FEF7F8FFF8667B685B68012BBB
:1018100012D10AE0FEF7F0FF0246FB6ED31A41F246
:101820008832934201D903236AE0244B5B6803F0BA
:101830000C03042BEED127E07B685B68022B1DD1E3
:101840000AE0FEF7D9FF0246FB6ED31A41F2883256
:10185000934201D9032353E0184B5B6803F00C0358
:10186000082BEED110E0FEF7C7FF0246FB6ED31A3D
:1018700041F28832934201D9032341E00F4B5B6868
:1018800003F00C03002BEED10B4B1B6803F0070396
:101890003A689A4214D2084B1B6823F007020649A3
:1018A0003B6813430B60044B1B6803F007033A6863
:1018B0009A4205D0012323E000200240001002409C
:1018C0007B681B6803F00403002B08D00E4B5B6899
:1018D00023F4E0627B68DB680B4913434B607B6851
:1018E0001B6803F00803002B09D0074B5B6823F447
:1018F00060527B681B69DB00034913434B60002384
:1019000018467037BD4680BD0010024080B400AF5D
:10191000024B1846BD465DF8047B704780969800E0
:1019200080B487B000AF7860396000237B6100230A
:10193000FB6000233B6154E13B681A6801217B692D
:1019400001FA03F31340FB60FB68002B00F04681B3
:101950003B685B68022B03D03B685B68122B23D18A
:101960007B69DA087B68083253F822303B617B6977
:1019700003F007039B000F2202FA03F3DB433A69EB
:1019800013403B613B681A697B6903F007039B00C6
:1019900002FA03F33A6913433B617B69DA087B6817
:1019A0000832396943F822107B681B683B617B6908
:1019B0005B00032202FA03F3DB433A6913403B6105
:1019C0003B685B6803F003027B695B0002FA03F388
:1019D0003A6913433B617B683A691A603B685B680C
:1019E000012B0BD03B685B68022B07D03B685B6820
:1019F000112B03D03B685B68122B30D17B689B684E
:101A00003B617B695B00032202FA03F3DB433A6923
:101A100013403B613B68DA687B695B0002FA03F3C1
:101A20003A6913433B617B683A699A607B685B68FB
:101A30003B6101227B6902FA03F3DB433A691340FD
:101A40003B613B685B681B0903F001027B6902FA9A
:101A500003F33A6913433B617B683A695A607B68D8
:101A6000DB683B617B695B00032202FA03F3DB4323
:101A70003A6913403B613B689A687B695B0002FAF4
:101A800003F33A6913433B617B683A69DA603B6868
:101A90005B6803F08053002B00F0A080584B9B69DB
:101AA000574A43F001039361554B9B6903F00103CF
:101AB000BB60BB68534A7B699B08023352F82330F2
:101AC0003B617B6903F003039B000F2202FA03F3DF
:101AD000DB433A6913403B617B68B3F1904F19D007
:101AE0007B68494A934213D07B68484A93420DD0A1
:101AF0007B68474A934207D07B68464A934201D1AC
:101B0000042308E0052306E0032304E0022302E0A7
:101B1000012300E000237A6902F00302920093405F
:101B20003A6913433B6137497B699B0802333A6941
:101B300041F82320384B1B683B61FB68DB433A6963
:101B400013403B613B685B6803F48033002B03D098
:101B50003A69FB6813433B612F4A3B6913602E4B84
:101B60005B683B61FB68DB433A6913403B613B6860
:101B70005B6803F40033002B03D03A69FB6813431E
:101B80003B61254A3B695360234B9B683B61FB6883
:101B9000DB433A6913403B613B685B6803F48013A5
:101BA000002B03D03A69FB6813433B611A4A3B6937
:101BB0009360194BDB683B61FB68DB433A69134078
:101BC0003B613B685B6803F40013002B03D03A6968
:101BD000FB6813433B61104A3B69D3607B69013367
:101BE0007B613B681A687B6922FA03F3002B7FF460
:101BF000A3AE00BF1C37BD465DF8047B704700BF35
:101C000000100240000001400004004800080048A5
:101C1000000C0048001000480004014080B483B06C
:101C200000AF78600B467B8013467B707B78002B7F
:101C300003D07A887B689A6102E07A887B689A622E
:101C400000BF0C37BD465DF8047B704780B586B099
:101C500000AF78600023FB601023FB7500237B81BD
:101C60000023BB820023FB747B689A687B681B6936
:101C70001A437B685B691A437B68DB691343FB602B
:101C80007B681B681B6823F4164323F00C037A68F7
:101C90001268F9680B4313607B681B685B6823F468
:101CA00040517B68DA687B681B680A435A607B682E
:101CB0009A697B681B6A1343FB607B681B689B689F
:101CC00023F430617B681B68FA680A439A607B687A
:101CD0001B68B44A934221D1B34B1B6B03F003033F
:101CE000032B17D801A252F823F000BFFD1C0008F7
:101CF000091D00080F1D0008031D00080123FB75C6
:101D0000B2E00223FB75AFE00423FB75ACE00823CF
:101D1000FB75A9E01023FB7500BFA5E07B681B687D
:101D2000A24A934223D1A04B1B6B03F44033B3F57B
:101D3000803F12D0B3F5803F02D8002B07D012E0CD
:101D4000B3F5003F0CD0B3F5403F03D00BE00023C8
:101D5000FB7589E00223FB7586E00423FB7583E0B5
:101D60000823FB7580E01023FB7500BF7CE07B68D7
:101D70001B688F4A934223D18B4B1B6B03F4402388
:101D8000B3F5802F12D0B3F5802F02D8002B07D0E7
:101D900012E0B3F5002F0CD0B3F5402F03D00BE0C9
:101DA0000023FB7560E00223FB755DE00423FB75F7
:101DB0005AE00823FB7557E01023FB7500BF53E082
:101DC0007B681B687B4A934223D1774B1B6B03F4E0
:101DD0004013B3F5801F12D0B3F5801F02D8002B3B
:101DE00007D012E0B3F5001F0CD0B3F5401F03D0AD
:101DF0000BE00023FB7537E00223FB7534E004237E
:101E0000FB7531E00823FB752EE01023FB7500BF46
:101E10002AE07B681B68684A934223D1624B1B6BA4
:101E200003F44003B3F5800F12D0B3F5800F02D84E
:101E3000002B07D012E0B3F5000F0CD0B3F5400F24
:101E400003D00BE00023FB750EE00223FB750BE0D3
:101E50000423FB7508E00823FB7505E01023FB75E0
:101E600000BF01E01023FB757B68DB69B3F5004F11
:101E70006FD1FB7D082B57D801A252F823F000BF89
:101E8000A51E0008C11E0008DD1E0008291F00084D
:101E9000F71E0008291F0008291F0008291F000835
:101EA000131F0008FEF7BFFC03465A007B685B68FF
:101EB0005B081A447B685B68B2FBF3F3BB8236E0D5
:101EC000FFF724FD03465A007B685B685B081A44F1
:101ED0007B685B68B2FBF3F3BB8228E07B685B68DE
:101EE0005B0803F1F47303F590437A685268B3FB1F
:101EF000F2F3BB821BE0FEF78DFC03465A007B68C1
:101F00005B685B081A447B685B68B2FBF3F3BB82D7
:101F10000DE07B685B685B0803F580327B685B687B
:101F2000B2FBF3F3BB8202E00123FB7400BFBB8A68
:101F300023F00F037B81BB8A5B109BB203F0070386
:101F40009AB27B8913437B817B681B687A89DA604C
:101F500075E0FB7D082B6FD801A252F823F000BF7B
:101F6000851F0008BD1F0008DD1F0008392000087C
:101F7000FD1F00083920000839200008392000081A
:101F80001D200008FEF74FFC02467B685B685B087B
:101F90001A447B685B68B2FBF3F39AB27B681B68F8
:101FA000DA604CE00038014000100240004400407C
:101FB00000480040004C004000500040FFF7A6FCE5
:101FC00002467B685B685B081A447B685B68B2FB0F
:101FD000F3F39AB27B681B68DA6030E07B685B6879
:101FE0005B0803F5740303F510537A685268B3FB7A
:101FF000F2F39AB27B681B68DA6020E0FEF70AFC15
:1020000002467B685B685B081A447B685B68B2FBCE
:10201000F3F39AB27B681B68DA6010E07B685B6858
:102020005B0803F500427B685B68B2FBF3F39AB28E
:102030007B681B68DA6002E00123FB7400BFFB7C55
:1020400018461837BD4680BD80B586B002AF7860AF
:102050000023FB607B680022DA66FEF7CDFBF860A8
:102060007B681B681B6803F00803082B0ED16FF018
:102070007E430093FB6800224FF40011786800F063
:1020800073F80346002B01D0032322E07B681B6812
:102090001B6803F00403042B0ED16FF07E43009302
:1020A000FB6800224FF48001786800F05DF8034679
:1020B000002B01D003230CE07B68202283F86920E9
:1020C0007B68202283F86A207B68002283F86820DE
:1020D000002318461037BD4680BD80B582B000AFE2
:1020E00078607B68002B01D1012339E07B6893F88D
:1020F0006930DBB2002B03D17B68002283F86820B3
:102100007B68242283F869207B681B681A687B68D7
:102110001B6822F001021A607868FFF797FD0346FA
:10212000012B01D101231BE07B681B685A687B6887
:102130001B6822F490425A607B681B689A687B682F
:102140001B6822F02A029A607B681B681A687B6809
:102150001B6842F001021A607868FFF775FF0346BA
:1021600018460837BD4680BD80B584B000AFF86022
:10217000B9603B601346FB712CE0BB69B3F1FF3FD4
:1021800028D0BB69002B07D0FEF736FB02463B6820
:10219000D31ABA699A421DD2FB681B681A68FB6899
:1021A0001B6822F4D0721A60FB681B689A68FB688F
:1021B0001B6822F001029A60FB68202283F86920E4
:1021C000FB68202283F86A20FB68002283F86820DD
:1021D00003230FE0FB681B68DA69BB681340BA6829
:1021E0009A420CBF01230023DBB21A46FB799A42C4
:1021F000C3D0002318461037BD4680BD80B588B0D7
:1022000002AFF860B9603B601346FB8000237B613E
:10221000FB6893F86930DBB2202B77D1BB68002BC9
:1022200002D0FB88002B01D1012370E0FB6893F8FA
:102230006830012B01D1022369E0FB68012283F899
:102240006820FB680022DA66FB68212283F8692097
:10225000FEF7D2FA7861FB68FA88A3F85020FB6891
:10226000FA88A3F8522034E0FB68B3F852309BB2EE
:10227000013B9AB2FB68A3F852203B6800937B694C
:1022800000228021F868FFF76FFF0346002B01D082
:1022900003233CE0FB689B68B3F5805F11D1FB68CA
:1022A0001B69002B0DD1BB683B613B691A88FB6839
:1022B0001B68C2F3080292B21A85BB680233BB6086
:1022C00007E0BB685A1CBA601A78FB681B6892B2B8
:1022D0001A85FB68B3F852309BB2002BC4D13B681F
:1022E00000937B6900224021F868FFF73DFF034619
:1022F000002B01D003230AE0FB68202283F8692029
:10230000FB68002283F86820002300E002231846BF
:102310001837BD4680BD80B58AB002AFF860B9609D
:102320003B601346FB800023FB61FB6893F86A3037
:10233000DBB2202B40F09F80BB68002B02D0FB88D3
:10234000002B01D1012397E0FB6893F86830012B43
:1023500001D1022390E0FB68012283F86820FB682A
:102360001B684FF0FF321A62FB680022DA66FB68D6
:10237000222283F86A20FEF73FFAF861FB68FA88A8
:10238000A3F85820FB68FA88A3F85A20FB689B68DA
:10239000B3F5805F0ED1FB681B69002B05D1FB688C
:1023A00040F2FF12A3F85C2015E0FB68FF22A3F8BF
:1023B0005C2010E0FB689B68002B0CD1FB681B695C
:1023C000002B04D1FB68FF22A3F85C2003E0FB682C
:1023D0007F22A3F85C20FB68B3F85C307B833AE093
:1023E000FB68B3F85A309BB2013B9AB2FB68A3F882
:1023F0005A203B680093FB6900222021F868FFF710
:10240000B3FE0346002B01D0032335E0FB689B6835
:10241000B3F5805F12D1FB681B69002B0ED1BB683E
:102420007B61FB681B689B8C9AB27B8B13409AB2D2
:102430007B691A80BB680233BB600CE0FB681B68D9
:102440009B8C9BB2D9B27B8BDAB2BB68581CB8604C
:102450000A40D2B21A70FB68B3F85A309BB2002B14
:10246000BED1FB68202283F86A20FB68002283F833
:102470006820002300E0022318462037BD4680BDB7
:1024800080B584B000AF7860114B1B68002B02D17F
:102490000F4B104A1A600E4B1B68FB600C4B1A68FE
:1024A0007B6813446A46934207D900F047F8024616
:1024B0000C2313604FF0FF3306E0054B1A687B686E
:1024C0001344034A1360FB6818461037BD4680BDAD
:1024D0003C010020E0010020002103E00E4B5B588E
:1024E000435004310D480E4B42189A42F6D30D4A20
:1024F00002E00023136004320B4B9A42F9D3DFF859
:102500002C00016841F470010160AFF3008000F01D
:102510001BF8FDF7E9FFFEE7FC390008000000208A
:102520007400002074000020DC01002088ED00E031
:10253000FEE70A22002100F0D7B90000014B18681D
:10254000704700BF1000002070B50D4D0D4C641B8E
:10255000A4100026A64209D10B4D0C4C01F012F933
:10256000641BA4100026A64205D170BD55F8043B9B
:1025700098470136EEE755F8043B98470136F2E7F5
:10258000F4390008F4390008F4390008F839000873
:10259000024B0146186800F05FB800BF1000002031
:1025A000024B0146186800F00BB800BF1000002075
:1025B00002440346934200D1704703F8011BF9E738
:1025C00037B5002944D051F8043C0190002BA1F10B
:1025D0000404B8BFE41800F0C1F91E4A019813685A
:1025E00033B96360146003B0BDE8304000F0BCB99B
:1025F000A34208D9256861198B4201BF19685B683D
:1026000049192160EDE71A465B680BB1A342FAD97C
:1026100011685518A5420BD1246821445418A342CF
:102620001160E0D11C685B68536021441160DAE7F7
:1026300002D90C230360D6E7256861198B4204BFD9
:1026400019685B68636004BF491921605460CAE778
:1026500003B030BD5C010020F8B5CD1C25F00305AA
:1026600008350C2D38BF0C25002D064601DBA9428C
:1026700003D90C2333600020F8BD00F06FF9214925
:102680000A6814469CB9204F3B6823B9214630465E
:1026900000F03CF838602946304600F037F8431C1B
:1026A00023D10C233360304600F05EF9E3E7236862
:1026B0005B1B17D40B2B03D923601C44256004E05B
:1026C0006368A2420CBF0B605360304600F04CF9C7
:1026D00004F10B00231D20F00700C21ACCD01B1AF6
:1026E000A350C9E722466468CCE7C41C24F0030465
:1026F000A042E3D0211A304600F008F80130DDD1C5
:10270000CFE700BF5C0100206001002038B5064D16
:102710000023044608462B60FFF7B2FE431C02D19B
:102720002B6803B1236038BD64010020164B73B5DC
:102730001E68B46D0546FCB950200191FFF728FFD3
:102740000199B065024620B9104B1148572100F09D
:10275000D5F8C0E90044C0E90244C0E90444C0E936
:102760000A44C0E90C44C0E90E44C0E91044C0E981
:102770001244846104774462B26D0123284602B09A
:10278000BDE8704000F006B810000020A437000833
:10279000BB370008F0B508B9106888B10446204678
:1027A00014F8015B0F4617F8016B1EB965B9156087
:1027B000284605E0B542F6D1002BF0D11460037035
:1027C000F0BD1C460CE015B914F8013B0E4616F896
:1027D000015BAB42F7D1002BF3D0002304F8013C9E
:1027E0001460EDE7012B2DE9F04701D0242B06D929
:1027F000FFF7A4FE162303600020BDE8F087DFF892
:10280000E4C00D462E4615F8014B14F80C7017F075
:102810000807F7D12D2C32D12C780127B51C002BBD
:102820005BD0102B09D1302C07D12C7804F0DF04B9
:10283000582C4DD16C781023023507F1004808F16F
:10284000FF384FF0000CB8FBF3F9664603FB198A1A
:10285000A4F1300EBEF1090F16D87446A34224DD50
:10286000BCF1000F1EDBB1451CD301D1A24519DB21
:1028700006FB03464FF0010C15F8014BE8E72B2C43
:1028800004BF2C78B51CCAE7A4F1410EBEF1190FA4
:1028900001D8373CE2E7A4F1610EBEF1190F04D86C
:1028A000573CDBE74FF0FF3CE6E7BCF1000F05DAF1
:1028B00022230360464642B930469EE707B176427E
:1028C000002AF9D0BCF1000F00D0691E1160F3E7B7
:1028D0003024002BB1D10823AFE7302CA5D00A2338
:1028E000ABE700BF5438000813460A4601460248C9
:1028F0000068FFF777BF00BF100000201FB5144627
:102900001A46094B1B680546D8684CB1074B009125
:10291000CDE9013406492B4600F00EF800F044FAE8
:10292000044B1C46F3E700BF1000002017380008D6
:1029300024380008523800080EB403B5014603AB32
:10294000054853F8042B0068019300F03DF802B0ED
:102950005DF804EB03B0704710000020014800F060
:10296000E3BB00BF68010020014800F0DEBB00BFF0
:10297000680100209368013B002B10B4936008DAD3
:102980009469A34201DB0A2903D15DF8044B00F0EE
:102990004BB91368581C1060197008465DF8044B59
:1029A0007047F8B506460F461446D518AC4201D11B
:1029B000002007E014F8011B3A463046FFF7DAFF23
:1029C000431CF3D1F8BD00002DE9F04F0D469DB03A
:1029D00014469846064618B183690BB900F006FB09
:1029E000894B9D421BD175686B6ED90705D4AB89A5
:1029F0009A0502D4A86D00F097FBAB891B0701D59F
:102A00002B69EBB92946304600F060F9C0B16B6E16
:102A1000DC070ED54FF0FF301DB0BDE8F08F7B4BCB
:102A20009D4201D1B568DFE7794B9D4208BFF5684B
:102A3000DAE7AB899805EDD4A86D00F076FBE9E7FD
:102A40000023099320238DF82930CDF80C80302302
:102A5000DFF8C0818DF82A304FF0010923469A46ED
:102A600013F8012B0AB1252AF9D1BAEB040B0BD0CC
:102A70005B46224629463046FFF793FF013000F0BF
:102A8000AA80099A5A4409929AF80030002B00F063
:102A9000A28000234FF0FF32CDE905230AF1010A9D
:102AA000049307938DF853301A935446052214F873
:102AB000011B5848FDF76CFB049AD8B9D10644BFF6
:102AC00020238DF85330130744BF2B238DF8533048
:102AD0009AF800302A2B15D0079A544600204FF060
:102AE0000A0C214611F8013B303B092B4ED9B0B1FD
:102AF000079214E0A0EB080309FA03F313430493CD
:102B0000A246D2E7039B191D1B680391002BBBBF94
:102B10005B4242F0020207930793B8BF0492237806
:102B20002E2B0CD163782A2B35D1039B1A1D1B68E1
:102B30000392002BB8BF4FF0FF3302340593DFF848
:102B4000E4A0217803225046FDF722FB40B1402348
:102B5000A0EB0A0003FA00F0049B03430134049342
:102B600014F8011B2C488DF828100622FDF710FBE5
:102B700000283FD0294B1BBB039B073323F00703DF
:102B800008330393099B3B44099367E70CFB02322C
:102B90000C460120A5E700230134059319464FF0A8
:102BA0000A0C204610F8012B303A092A03D9002BD1
:102BB000C5D00591C3E70CFB012104460123F0E7D2
:102BC00003AB00932A46164B04A93046AFF30080AE
:102BD0000746781CD6D16B6ED90705D4AB899A0508
:102BE00002D4A86D00F0A1FAAB895B063FF512AFE5
:102BF000099811E703AB00932A46094B04A9304614
:102C000000F068FBE4E700BF88390008A839000835
:102C100068390008543900085E39000800000000D7
:102C2000A32900085A390008F8B50E46144605468F
:102C300018B183690BB900F0D9F9214B9C422BD113
:102C40006C68A369A360A3891A072FD523696BB3A6
:102C500023692068C01A6369F6B28342374604DCF0
:102C60002146284600F02EF930BBA368013BA36043
:102C700023685A1C22601E7063690130834204D0AD
:102C8000A389DB0706D50A2E04D12146284600F089
:102C900019F988B93846F8BD0A4B9C4201D1AC6895
:102CA000CFE7094B9C4208BFEC68CAE7214628469B
:102CB00000F00CF80028CBD04FF0FF37EAE700BF58
:102CC00088390008A839000868390008324B70B507
:102CD0001D6806460C4625B1AB6913B9284600F0BD
:102CE00085F92E4B9C420FD16C68A389B4F90C2056
:102CF00019072CD4DD0611D40923336042F04003B8
:102D0000A3814FF0FF303EE0254B9C4201D1AC68DF
:102D1000EBE7244B9C4208BFEC68E6E7580712D566
:102D2000616B41B104F14403994202D03046FFF790
:102D300047FC00236363A38923F02403A3810023BA
:102D4000636023692360A38943F00803A381236997
:102D50004BB9A38903F42073B3F5007F03D0214658
:102D6000304600F009FAA089B4F90C2010F00103F4
:102D70000AD00023A36063695B42A361236943B95E
:102D800010F08000BAD170BD810758BF6369A3609D
:102D9000F4E70020F7E700BF1000002088390008A2
:102DA000A83900086839000808B5062000F0E0FBE3
:102DB000012000F0E5FC00008A892DE9F04105467C
:102DC00010070C4658D44B68002B05DC0B6C002B0D
:102DD00002DC0020BDE8F081E66A002EF9D0002375
:102DE00012F480522F682B6032D0606DA3895A078D
:102DF00005D56368C01A636B0BB1236CC01A00233E
:102E00000246E66A216A2846B047431CA38906D1D8
:102E100029681D292CD82A4ACA40D60728D500225D
:102E20006260D9042269226004D5421C01D12B685A
:102E300003B96065616B2F600029CAD004F14403B7
:102E4000994202D02846FFF7BBFB00206063C1E730
:102E5000216A01232846B047411CC7D12B68002BAB
:102E6000C4D01D2B01D0162B01D12F60B1E7A3894F
:102E700043F04003A381ADE70F69002FA9D093076A
:102E80000E6808BF4B690F6018BF0023A6EB070848
:102E90008B60B8F1000F9CDD216AA66A43463A4672
:102EA0002846B047002806DCA38943F04003A381ED
:102EB0004FF0FF308EE70744A8EB0008E9E700BFBA
:102EC0000100402038B50B6905460C4613B90025B2
:102ED000284638BD18B183690BB900F087F8144B48
:102EE0009C421BD16C68B4F90C30002BEFD0626EA1
:102EF000D00704D4990502D4A06D00F015F9284636
:102F00002146FFF759FF636EDA070546E0D4A3892F
:102F10009B05DDD4A06D00F008F9D9E7054B9C4274
:102F200001D1AC68DFE7044B9C4208BFEC68DAE7EC
:102F300088390008A839000868390008002310B54E
:102F40000446C0E90033C0E90433836081814366ED
:102F5000C2818361194608225C30FFF729FB054BCB
:102F60006362054BA362054BE362054B2462236356
:102F700010BD00BFA9350008CB3500080336000896
:102F800027360008014900F0AFB800BFC52E000881
:102F900070B568224D1E55430E4605F17401FFF7CA
:102FA0005BFB044640B10021C0E900160C30A06074
:102FB00005F16802FFF7FCFA204670BD014800F0F9
:102FC000B3B800BF69010020014800F0AEB800BFEF
:102FD00069010020014800F0A7B800BF6A01002085
:102FE000014800F0A2B800BF6A01002010B50446F5
:102FF000FFF7F0FFA3691BB1BDE81040FFF7F0BF7A
:10300000C4E912332365134B134A1B68A262A3421F
:1030100004BF0123A361204600F020F86060204631
:1030200000F01CF8A060204600F018F80022E060D4
:1030300004216068FFF782FFA06801220921FFF7E1
:103040007DFFE06802221221FFF778FF0123A361D0
:10305000D2E700BFA0370008852F0008F8B5074663
:10306000FFF7ACFF1E4B1E68B36913B93046FFF77C
:10307000BDFF4836D6E90134013B03D533680BB3B5
:103080003668F7E7B4F90C50D5B9164BE36004F194
:103090005800656600F047F8FFF796FFC4E9015550
:1030A000C4E904552560A5610822294604F15C00A5
:1030B000FFF77EFAC4E90D55C4E912552046F8BD64
:1030C0006834D9E704213846FFF762FF04463060D0
:1030D0000028D5D1FFF778FF0C233B60EEE700BF57
:1030E000A03700080100FFFF2DE9F8430646884697
:1030F00000F148040027D4E90195B9F1010905D58B
:103100002468002CF7D13846BDE8F883AB89012B41
:1031100007D9B5F90E30013303D029463046C047F0
:1031200007436835E9E770477047704770B50E464A
:10313000B1F90E10002996B014461D4608DAB6F90A
:103140000C3000222A601A0610D44FF480630EE07F
:103150006A4600F08FFA0028F1DB019A02F470420F
:10316000A2F500535A425A412A60EEE7402300205C
:10317000236016B070BD00008B8973B59D070646AD
:103180000C4607D504F147032360236101236361E3
:1031900002B070BD01AB6A46FFF7C8FF0099054653
:1031A0003046FFF759FA48B9B4F90C309A05EFD414
:1031B00023F0030343F00203A381E3E70D4BB36263
:1031C000A389206043F08003A381009B6361019B7E
:1031D00020615BB1B4F90E10304600F05DFA28B101
:1031E000A38923F0030343F00103A381A0890543CE
:1031F000A581CDE7852F00082DE9F04716469946B1
:103200008A680B69DDF820809342B8BF13463360AB
:1032100091F8432007460C460AB101333360236816
:10322000990642BF336802333360256815F00605FE
:1032300006D104F1190AE36832689B1AAB4226DC16
:1032400094F84320131E226818BF012392062BD442
:1032500004F1430249463846C04701301ED0236876
:10326000E568326803F00603042B08BFAD1AA368B3
:1032700022690CBF25EAE57500259342C4BF9B1A5D
:10328000ED1800261A34B5421AD1002008E00123B7
:10329000524649463846C047013003D14FF0FF300F
:1032A000BDE8F0870135C6E7E1185A1C302081F8E7
:1032B0004300224494F8451082F843100233C7E7D4
:1032C0000123224649463846C0470130E6D0013640
:1032D000D9E700002DE9FF470F7E0C9D782F91461E
:1032E00080460C469A4601F1430207D8622F0AD85D
:1032F000002F00F0D880582F00F0A38004F1420581
:1033000084F842703AE0A7F16303152BF6D801A1C7
:1033100051F823F06D33000881330008FD320008B6
:10332000FD320008FD320008FD320008813300083C
:10333000FD320008FD320008FD320008FD320008B1
:103340008D340008B13300086F340008FD320008E6
:10335000FD320008AF340008FD320008B133000828
:10336000FD320008FD320008773400082B681A1D72
:103370001B682A6004F1420584F842300123A3E06F
:1033800020682968060601F104030AD50E682B603F
:10339000002E03DA2D23764284F843305E480A2358
:1033A00019E00E682B6010F0400F18BF36B2EFE73F
:1033B0002B682068191D2960010601D51E6802E0EE
:1033C0004606FBD51E8854486F2F0CBF08230A23DE
:1033D000002184F843106568A560002DA2BF216814
:1033E00021F0040121600EB9002D4DD01546B6FB29
:1033F000F3F103FB1167C75D05F8017D3746BB425A
:103400000E46F4D9082B0BD12368DE0708D52369B3
:1034100061689942DEBF302305F8013C05F1FF35B4
:10342000521B2261CDF800A04B4603AA214640461C
:10343000FFF7E2FE01304CD14FF0FF3004B0BDE8A1
:10344000F087354881F845702968236851F8046B86
:1034500029601D0614D5DF0744BF43F02003236015
:103460001EB9236823F0200323601023B0E72368EC
:1034700043F0200323607823284884F84530E3E7AD
:10348000590648BFB6B2E6E71546BBE72B68266883
:103490006169181D286035061B6801D5196002E0B6
:1034A0007006FBD51980002323611546BAE72B6807
:1034B0001A1D2A601D68626800212846FCF768FE14
:1034C00008B1401B606063682361002384F84330C7
:1034D000A8E723692A4649464046D0470130ABD089
:1034E00023689B0713D4E068039B9842B8BF184633
:1034F000A4E70123324649464046D04701309BD0DD
:103500000135E36803995B1AAB42F2DCEBE7002577
:1035100004F11906F5E700BFC8390008D9390008D9
:103520001F2938B504460D4604D9162303604FF011
:10353000FF3038BD426C12B152F821304BB92046F1
:1035400000F030F82A4601462046BDE8384000F039
:1035500017B8012B0AD0591C03D116230360012090
:10356000E7E7002442F82540284698470020E0E796
:10357000024B01461868FFF7D3BF00BF10000020C0
:1035800038B5074D00230446084611462B6000F06D
:10359000D7F8431C02D12B6803B1236038BD00BFAC
:1035A0006401002000F0BCB810B50C46B1F90E1053
:1035B00000F094F80028ABBF636DA3891B1823F4B7
:1035C0008053ACBF6365A38110BD2DE9F0411F4658
:1035D0008B89DB0505460C46164605D5B1F90E105C
:1035E0000223002200F068F8A389B4F90E1023F436
:1035F0008053A38132463B462846BDE8F04100F0A7
:1036000017B810B50C46B1F90E1000F055F8431C70
:10361000A38915BF606523F4805343F48053A381CD
:1036200018BFA38110BDB1F90E1000F013B800004F
:1036300038B5074D04460846114600222A601A464E
:1036400000F096F8431C02D12B6803B1236038BD0B
:103650006401002038B5064D0023044608462B605F
:1036600000F04EF8431C02D12B6803B1236038BD33
:103670006401002038B5074D002304460846114672
:103680002B6000F045F8431C02D12B6803B1236086
:1036900038BD00BF6401002038B5064D0023044644
:1036A00008462B6000F044F8431C02D12B6803B19C
:1036B000236038BD6401002038B5074D0446084634
:1036C000114600222A601A4600F042F8431C02D13B
:1036D0002B6803B1236038BD6401002038B5074D65
:1036E00004460846114600222A601A4600F038F8BF
:1036F000431C02D12B6803B1236038BD6401002054
:10370000024B58221A604FF0FF30704764010020CE
:10371000024B58221A604FF0FF30704764010020BE
:10372000024B58221A604FF0FF30704764010020AE
:10373000024B58221A600020704700BF640100202D
:10374000024B58221A604FF0FF307047640100208E
:10375000024B58221A604FF0FF307047640100207E
:10376000024B58221A604FF0FF307047640100206E
:10377000024B58221A604FF0FF307047640100205E
:10378000FEE700BFF8B500BFF8BC08BC9E46704716
:0C379000F8B500BFF8BC08BC9E467047AE
:10379C0020000000140000205245454E54206D615D
:1037AC006C6C6F6320737563636565646564002F6F
:1037BC00486F73742F686F6D652F696C672F576F27
:1037CC00726B2F61726D2D6E6F6E652D6561626906
:1037DC002D6763632D31302E322E312D312E312F4A
:1037EC00736F75726365732F6E65776C69622F6E7C
:1037FC0065776C69622F6C6962632F737472696E82
:10380C00672F737472746F6B2E63002C2066756E49
:10381C006374696F6E3A2000617373657274696FBB
:10382C006E2022257322206661696C65643A2066DD
:10383C00696C6520222573222C206C696E6520250D
:10384C0064257325730A00002020202020202020CE
:10385C002028282828282020202020202020202034
:10386C002020202020202020881010101010101054
:10387C00101010101010101004040404040404049C
:10388C00040410101010101010414141414141012D
:10389C00010101010101010101010101010101010C
:1038AC00010101101010101010424242424242021B
:1038BC0002020202020202020202020202020202DC
:1038CC000202021010101020000000000000000086
:1038DC0000000000000000000000000000000000DC
:1038EC0000000000000000000000000000000000CC
:1038FC0000000000000000000000000000000000BC
:10390C0000000000000000000000000000000000AB
:10391C00000000000000000000000000000000009B
:10392C00000000000000000000000000000000008B
:10393C00000000000000000000000000000000007B
:10394C000000000000000000232D302B2000686CCC
:10395C004C0065666745464700000000000000000B
:10396C00000000000000000000000000000000004B
:10397C00000000000000000000000000000000003B
:10398C00000000000000000000000000000000002B
:10399C00000000000000000000000000000000001B
:1039AC00000000000000000000000000000000000B
:1039BC000000000000000000000000003031323335
:1039CC00343536373839414243444546003031327C
:1039DC00333435363738396162636465660000000C
:0839EC0014FDFF7F0100000043
:0439F4005502000870
:0439F8003102000890
:1039FC00640000002C010000580200005802000076
:103A0C00140000200000000088390008A8390008C4
:103A1C0068390008000000000000000000000000F1
:103A2C00000000000000000000000000000000008A
:103A3C00000000000000000000000000000000007A
:103A4C00000000000000000000000000000000006A
:103A5C00000000000000000000000000000000005A
:043A6C000000000056
:04000005080024D9F2
:00000001FF
